:100000008EC0B2C0DEC0B0C029C5AEC0ADC0ACC0ED
:10001000ABC0AAC0A9C0A8C0A7C0A6C0A5C02A2BB3
:1000200028000000000000000000000000000000A8
:100030000029000000002C9EB4A0A1A2A434A6A711
:10004000A5AE362D3738271E1F2021222324252632
:10005000B333B62EB7B89F8485868788898A8B8C00
:100060008D8E8F909192939495969798999A9B9C48
:100070009D2F3130A3AD350405060708090A0B0C86
:100080000D0E0F101112131415161718191A1B1C28
:100090001DAFB1B0B505010906A101050719E02999
:1000A000E715002501750195088102950175082560
:1000B00065190029658100C0090222000101008044
:1000C00032090400000103010100092101010001BE
:1000D0002223000705810308000A12011001000015
:1000E0000008C016DB2700010102000110034400D4
:1000F0006900670069004B00650079001C0364001B
:100100006900670069007300740075006D0070007D
:100110002E0063006F006D00040309041D03112409
:100120001FBECFE5D2E0DEBFCDBF10E0A0E6B0E05D
:10013000E4E0FDE002C005900D92AE3BB107D9F7B7
:1001400021E0AEEBB0E001C01D92A430B207E1F7B0
:1001500011E0CEE1D1E003C02297FE019FD5CC3162
:10016000D107D1F768D4CCC54BCFA82FB92F80E0E9
:1001700090E041E050EA609530E009C02D9182277F
:100180009795879510F084279527305EC8F36F5FA9
:10019000A8F30895EADF8D939D930895A6E088273C
:1001A0009927AA9569F00197E1F3B399FCCFB39B26
:1001B000FECF81E09927A6B3019611F0A871D9F777
:1001C0000895CF93CFB7CF93C395B39BE9F7B39B74
:1001D0000BC0B39B09C0B39B07C0B39B05C0B39BC7
:1001E00003C0B39B01C0D5C00F92DF93C091E7005D
:1001F000DD27C251DF4F012EB39B03C0DF910F906B
:10020000E6CF2F930F931F934F932FEF4F6F06B3AC
:1002100003FB20F95F933F9350E03BE065C016B3CA
:100220000126502953FDC89556B3012703FB25F934
:100230002F7306B3B1F05027102713FB26F906B22F
:100240002230F0F000C016B3012703FB27F9012686
:10025000502906B22430E8F54F77206816B3000025
:10026000F6CF50274F7D206206B2102F000000C04D
:1002700006B300265029102713FB26F906B2E2CF59
:100280004F7B06B3206400C0DACF012650291871D5
:1002900006B269F14E7F2160012F16B328C00026F7
:1002A00050294D7F06B22260102F29C00126502907
:1002B0004B7F06B22460012F2DC016B301265029B2
:1002C000477F2860000006B22EC04F7E06B3206133
:1002D00030C0422706B3499300265029102706B2A2
:1002E0004FEF13FB20F9297F16B379F2187159F1FA
:1002F0000126502906B2012703FB21F9237F06B30B
:1003000071F2002650293150D0F006B2102713FBAD
:1003100022F9277E16B351F201265029012703FB4B
:1003200006B223F92F7C49F2000006B3102713FB15
:1003300024F90026502906B22F7939F270CF10E245
:100340001ABF002719C03B503195C31BD04010E2A3
:100350001ABF0881033C09F10B34F9F02091E50044
:100360001981110F1213EDCF4A81441F093651F143
:100370000D3211F0013E29F70093EC003F915F919F
:100380004F911F910F912F91DF910F90CAB7C5FD2B
:100390001BCFCF91CFBFCF9118952091EC00222396
:1003A00069F31091EA00112379F534307AF1309332
:1003B000EA002093E6001091E7003BE0311B309308
:1003C000E70024C00091EA000130F4F40AE54F7020
:1003D00049F43091670034FD1AC000936700CEECF9
:1003E000D0E019C03091D90034FD11C00093D9007C
:1003F000CAEDD0E010C0052710E000C021C00527DD
:1004000010E0C89508BB14C03AE501C032ED032ED8
:10041000C0E0D0E032E017B31861C39A08B317BB4D
:1004200058E120E84FEF20FF052708BB27951795D7
:100430001C3F28F700004552B0F720FF05272795FD
:1004400008BB17951C3FB8F629913A9561F7077ECE
:100450001091EB00110F08BBC250D04011F0109367
:10046000E50010E21ABF086017B3177E402F477EE1
:1004700054E05A95F1F708BB17BB48BB7FCF0F93E9
:100480001F93CF93DF9300D0CDB7DEB78C0180915F
:10049000D90084FD0CC04A8369834DD180E990E581
:1004A0000197F1F700C0000069814A81F0CFF8019F
:1004B0004283638362E0C80102960F900F90DF9140
:1004C000CF911F910F9113C1CF93DF93EC01D7DF31
:1004D00040E060E0CE01DF91CF91D1CFE62FF0E098
:1004E000EA5EFF4F6491262F30E0220F232F221F58
:1004F000330B232B11F040E201C040E06F77E4DFC3
:1005000081E090E00895FC0180EC90E09093E90098
:100510008093E80080818076803231F481818A3056
:1005200019F483818093C20080E0089504C13F9252
:100530004F925F926F927F928F929F92AF92BF92F3
:10054000CF92DF92EF92FF920F931F93CF93DF939F
:10055000CDB7DEB7CC54D1090FB6F894DEBF0FBECD
:10056000CDBF8CE4E8E6F0E0DE01119601900D923B
:100570008A95E1F78E010F5F1F4F29E375E080E058
:1005800090E044244394512C3201F8013080332010
:10059000B9F0622F2BE430E040E050E02BD349016A
:1005A0005A01C501B401665B7F4F8F4F9F4FA30176
:1005B0009201FCD2262F3626F80131928F01E5CF29
:1005C00060ED77E080E090E0B4D248E065E18EEB4A
:1005D00090E07ADF68EE73E080E090E0AAD240E03D
:1005E0006CE48EEB90E070DF68EE73E080E090E00A
:1005F000A0D2BE016F5F7F4F8EEB90E014D260EE11
:1006000073E984E090E095D2C45BDF4F0FB6F894B5
:10061000DEBF0FBECDBFDF91CF911F910F91FF9035
:10062000EF90DF90CF90BF90AF909F908F907F9092
:100630006F905F904F903F90089588EB90E090937B
:10064000BF008093BE00F894BB9A27EA86E99CE03D
:10065000215080409040E1F700C00000BB987FD15E
:1006600078941092C1001092C00062E080EC90E09B
:100670003EC0DF92EF92FF920F931F93CF93DF93D1
:10068000C8E0D0E0F12C80E8E82EDF2CDE0CD1BEF3
:1006900085DD8C01043389E018070CF4FD2CE69409
:1006A000219799F78FEF8F0D81BFCF2DD0E0219645
:1006B00081B790E0C817D9078CF070DD845399405A
:1006C00097FF03C09195819591098017910714F4C4
:1006D000F1B68C0181B78F5F81BFEACFF1BEDF91A8
:1006E000CF911F910F91FF90EF90DF900895CF93DE
:1006F000C62F2091D90024FF07C02091DA0038E8E6
:1007000023272093DA0003C02AE52093D900DC01D7
:10071000EBEDF0E09C2F9E0F8D918193892F8E1B26
:100720001816D4F36C2F8BED90E034DDCC5FC093C2
:10073000D900CF910895CF93DF938091EA00835041
:1007400087FDA8C09091E7002091E6002D3209F0C6
:100750009FC0883009F09CC0CCE0D0E0C91BD10913
:10076000C251DF4F83EC8093CE008AE5809367000F
:100770001092C4008881807619F0CE01C4DE7FC05B
:100780009A811092D7008981811106C01092D800F9
:1007900027ED30E082E06FC0853019F49093EB00D4
:1007A00067C0863009F04EC08B81813041F48AEDFC
:1007B00090E09093E9008093E80082E13FC08230AE
:1007C00041F488EB90E09093E9008093E80082E2A6
:1007D00035C08330F1F4911108C088E191E0909325
:1007E000E9008093E80084E029C0913041F48CEF67
:1007F00090E09093E9008093E8008CE11FC0923074
:10080000E1F48CEE90E09093E9008093E80080E1C1
:1008100015C0813241F48AEC90E09093E900809316
:10082000E80089E00BC0823241F485E990E09093C2
:10083000E9008093E80083E201C080E090E49093B7
:10084000C4001DC0883069F0893019F49093ED0020
:100850000FC08A3049F08B3059F48BE48093DA0072
:1008600007C02DEE30E002C027ED30E081E003C08C
:1008700027ED30E080E03093E9002093E8009F818D
:10088000911104C09E81981708F4892F8093660007
:100890001092EA008091670084FF46C08091660054
:1008A0008F3F09F441C0C82F893008F0C8E08C1B85
:1008B000809366008091CE0098E889278093CE00CF
:1008C000CC2331F12091E8003091E9008091C400FF
:1008D00086FF0BC0AFECB0E0F9018C2F8A0F94912A
:1008E0009D9331968A13FBCF09C0D901EFECF0E05C
:1008F0008C2F8E0F9D9191938E13FCCF8FEF8C0FC9
:1009000090E00196820F931F9093E9008093E80096
:100910006C2F8FEC90E03EDCCC5FCC3019F08FEF89
:1009200080936600C093670084E196B3987131F4B8
:100930008150D9F71092EB001092E500C1E08111CF
:10094000C0E08091C3008C1739F0C11103C0F89446
:1009500090DE7894C093C300DF91CF910895AC9A54
:100960008BB780628BBF8BE48093DA008AE580933B
:10097000D90008950F931F93CF93DF93EC018B0160
:10098000F80161918F01662341F0E881F9810190BE
:10099000F081E02DCE010995F3CFDF91CF911F912A
:1009A0000F910895EF92FF920F931F93CF93DF93D0
:1009B0007C018A01EB01060F171FC017D10751F008
:1009C0006991D701ED91FC910190F081E02DC70173
:1009D0000995F3CFDF91CF911F910F91FF90EF9089
:1009E0000895DC01ED91FC910190F081E02D642FE0
:1009F0000994DC01ED91FC910280F381E02D0994D2
:100A0000CF93DF93EC014DE050E060E070E0E9DF70
:100A10004AE050E060E070E0CE01E3DF82E090E089
:100A2000DF91CF910895CF93DF93EC01E2DFCE0108
:100A3000DF91CF91E5CFA1D079DD79DDFECF83B70E
:100A4000887F83BF8AB58C7F81608ABD83B7877FAB
:100A500083BF83B7887F836083BF089578941F9294
:100A60000F920FB60F9211242F933F938F939F9362
:100A7000AF93BF938091C6009091C700A091C8002A
:100A8000B091C9003091C5002CE7230F2D3728F015
:100A90002FEF230F0196A11DB11D2093C500809358
:100AA000C6009093C700A093C800B093C90080917E
:100AB000CA009091CB00A091CC00B091CD000196DE
:100AC000A11DB11D8093CA009093CB00A093CC00D0
:100AD000B093CD00BF91AF919F918F913F912F9196
:100AE0000F900FBE0F901F9018953FB7F89480910C
:100AF000CA009091CB00A091CC00B091CD002FB551
:100B000008B602FE05C02F3F19F00196A11DB11DC8
:100B10003FBF6627782F892F9A2F620F711D811D85
:100B2000911D42E0660F771F881F991F4A95D1F7E4
:100B30000895CF92DF92EF92FF92CF93DF936B01F4
:100B40007C01D3DFEB01C114D104E104F10471F0A5
:100B5000CCDF6C1B7D0B683E7340A8F381E0C81AA4
:100B6000D108E108F108C851DC4FEDCFDF91CF91FA
:100B7000FF90EF90DF90CF900895789480B78068D1
:100B800080BF80B7806480BF8CB580648CBD8FEFE0
:100B90008DBD80B7807F876080BF89B7846089BF43
:100BA0004EDF86B1876086B9379A0895A1E21A2E82
:100BB000AA1BBB1BFD010DC0AA1FBB1FEE1FFF1F01
:100BC000A217B307E407F50720F0A21BB30BE40B51
:100BD000F50B661F771F881F991F1A9469F7609598
:100BE0007095809590959B01AC01BD01CF01089552
:100BF00068940013E894A0E0B0E0E0E0F6E01DC0E7
:100C0000EFEFE7F959016A015E23550FEE08FE2C5C
:100C100087019B01AC019E23990F660B762FCB01B8
:100C200041D0CDB7DEB7EAE024C02F923F924F9279
:100C30005F926F927F928F929F92AF92BF92CF926C
:100C4000DF92EF92FF920F931F93CF93DF93CDB775
:100C5000DEB7CA1BDB0B0FB6F894DEBF0FBECDBFED
:100C600009942A88398848885F846E847D848C84BE
:100C70009B84AA84B984C884DF80EE80FD800C81C7
:100C80001B81AA81B981CE0FD11D0FB6F894DEBFAA
:100C90000FBECDBFED010895EE0FFF1F0590F4913B
:100CA000E02D0994DF93CF939F92A0E49A2E002425
:100CB000D001E001F00116950795F794E794D794D9
:100CC000C794B794A79448F41068A20FB31FC41F29
:100CD000D51FE61FF71F081E191E220F331F441FC2
:100CE000551F661F771F881F991F9A9421F79D0132
:100CF000AE01BF01C00111249F90CF91DF910895F3
:040D0000F894FFCF95
:100D0400000004018000FF5A91840EE4B186F308C8
:100D1400713BDA78689BE8BAF48591A11E6842CFEA
:100D240034131A2E196115CA22CA69582E7A21332E
:100D34003B623ABA75B008FDFB32C7D20D8779948D
:100D44004D3952AD7BAE36720354EB15B3ADC46C62
:0E0D54007CB5F100000000006E02BA04D2046B
:00000001FF
